:0E0000000C943B010C9400000C9494030C949F
:10000E0000000C9400000C9400000C9400000C9462
:10001E0000000C9400000C9400000C9400000C9452
:10002E0000000C9400000C9400000C9400000C9442
:10003E0000000C9400000C9400000C9400000C9432
:10004E0000000C9400001027E80364000A00010071
:10005E000010000110000100000000000000000070
:10006E0000006F00CB007E00810080004501820001
:10007E00AA018400B30086008600600165016B0151
:10008E006F017401790150726F660041686D65648D
:10009E0000416D72004164656C004F6D65720041E8
:1000AE00646D696E00456E74657220796F7572208D
:1000BE00494420202000596F752043616E2774201B
:1000CE00456E746572002A20436C6F736520202084
:1000DE00202020202020234368616E676520506118
:1000EE00737300456E746572204E65772070617370
:1000FE007320200057656C636F6D20257300436F6E
:10010E006E6669726D206E65772070617373202044
:10011E000050617373206E6F74204D61746368209C
:10012E002000506173732043616E277420636861F1
:10013E006E67650050617373204368616E67656416
:10014E0000456E74657220596F757220506173731D
:10015E00200057726F6E6720506173732121002A41
:10016E0000436F6E6669726D206E6577204964205C
:10017E002020004964206E6F74204D6174636820E6
:10018E00200049642043616E2774206368616E67A6
:10019E0065004964204368616E67656400456E744E
:1001AE00657220596F7572204944202020002A2044
:1001BE00436C6F73652020202020202020202320D8
:1001CE0045646974002A204564697420696420209E
:1001DE0020202020202320456469742050617373F1
:1001EE0000456E7465722049442020202020202076
:1001FE002000456E746572206E657720496420205C
:10020E00202000456E746572206E657720506173F4
:10021E007320202000596F7520617265206E6F74F7
:10022E002041646D696E000080C00A000400660003
:10023E0017007F0170000500600194000600650143
:10024E00990004006B019F0005006F01A3000500DB
:10025E007401A80006007901AD000C00970188001A
:10026E000200AD0136020000F894EE27ECBBF1E07F
:10027E00FBBFEBBFE5BF8DE0A2E0BB27ED938A95F8
:10028E00E9F780E094E0A0E6ED930197E9F7E8E363
:10029E00F2E085919591009761F0A591B591059049
:1002AE001590BF01F00105900D920197E1F7FB014A
:1002BE00F0CFEFE5EDBFE4E0EEBFC0E6D1E00C9489
:1002CE006801E7E0E4BBE8EFE5BB8C9A939AEFE0B8
:1002DE00E7BB7894EBB7E068EBBFE5B7EC60E5BF42
:1002EE00A0E19ED251D102D0FECFFFCF6FD23AD431
:1002FE0009F049C06BD2E3EBF0E03CD4D0D066D22B
:10030E0094D03ED43CF0E4ECF0E034D4ACEDB5E067
:10031E0025D5ECDFE4EDF0E02DD4D8D06E2E772489
:10032E0055D235D431F452D2E1EFF0E023D4A3D03C
:10033E0056D04CD2AA24BB242FD42CF532D4F9F4A7
:10034E00E2E0F1E0FA93EA93D501E2E0F0E0EAD4DC
:10035E00A7E9B1E033D466277727FBD484E0DBD35B
:10036E002696C19AC29AC39AA0EDB7E0F7D4C19867
:10037E00C09AA0EDB7E0F2D4C298C398C098F50128
:10038E0032965F01D9CF0895C29AC39AACEDB5E00B
:10039E00E5D4C298C39808951A931091A701AA2480
:1003AE00BB24FAD384F4FDD351F4F50131960DD468
:1003BE00A091A701B091A801A083B18304C0F5015B
:1003CE0032965F01EECF5A924A92A12FFFD004D4FB
:1003DE0008D41E2F0BD4A12FF9D00C944104C09237
:1003EE00A701D092A80107D40CD484F4EFD1ECE08D
:1003FE00F1E0C0D340D0F0D3EC15FD0539F0E6D1D5
:10040E00EFE1F1E0B7D3C0DF02D4EECFB9D32CF0D9
:10041E00E0E3F1E0AFD3B8DF07C0BEDFE2E4F1E026
:10042E00A9D3ACEDB5E09AD40895E5D3EAD314F58B
:10043E00CDD1EFE4F1E09ED31ED0D201BBD06E2E13
:10044E007724D2011196B6D0FE2FE0E0E093A301FF
:10045E00F093A401BBD1A091A301B091A401A60D6C
:10046E00B71DCA16DB0631F0E0E6F1E083D38CDF70
:10047E00CED3DCCF0895CC24DD2488249924CFD389
:10048E006CF424D06E2E7724F601CED36F01EDE6F8
:10049E00F1E070D3F40131964F01F1CF13C0442433
:1004AE00552488249924BBD36CF410D06E2E772457
:1004BE00F201BAD32F01EDE6F1E05CD3F4013196EF
:1004CE004F01F1CF03D06E2E77240895A898A99AE4
:1004DE00AA9AE3B3E63F29F49B9BFECFE1E0089591
:1004EE0014C0EE3E29F49C9BFECFE4E008950DC0AF
:1004FE00EE3D29F49D9BFECFE7E0089506C0EE3B4E
:10050E0021F49E9BFECFEAE00895A89AA998AA9A94
:10051E00E3B3E53F29F49B9BFECFE2E0089514C0C0
:10052E00ED3E29F49C9BFECFE5E008950DC0ED3D18
:10053E0029F49D9BFECFE8E0089506C0ED3B21F423
:10054E009E9BFECFE0E00895A89AA99AAA98E3B3DD
:10055E00E33F29F49B9BFECFE3E0089514C0EB3EEE
:10056E0029F49C9BFECFE6E008950DC0EB3D29F4E7
:10057E009D9BFECFE9E0089506C0EB3B21F49E9BC8
:10058E00FECFEBE00895A2CFAA24BB2405D38CF4B2
:10059E00219750D3EC9154D358D34CD3ED91FD9178
:1005AE0020D34ED3319651D32196F50132965F0169
:1005BE00EDCF08951A930A938D01E199FECF1FBBDB
:1005CE000EBBE09AEDB30991199108957BD31A2FC2
:1005DE002C813D81E199FECF3FBB2EBB1DBBE29A24
:1005EE00E19A77D326960895AA24BB24D5D28CF40B
:1005FE00F501AFE7B1E0E2D22CD3EA17FB0729F4FD
:10060E00F501E3D24082518204C0F50132965F01BA
:10061E00EDCF5A924A921DD3CDDFAE2FD7DFE6D261
:10062E0018D31196C7DFAE2F19D3FA93EA93A0E031
:10063E0015D33196FA93EA93A0E0C8DF089540925D
:10064E00A9015092AA01D7D2DCD29CF4BFD0EFE61A
:10065E00F1E090D224DFE091A901F091AA01E41516
:10066E00F50539F0B3D0E1E8F1E084D28DDECFD2DA
:10067E00EBCF86D22CF0E0E9F1E07CD285DE07C02C
:10068E00B3DFE0EAF1E076D2ACEDB5E067D30895E2
:10069E009DD0EBEAF1E06ED202DF98D0C6DEE0919B
:1006AE009301F0919401E415F50539F4E09195016B
:1006BE00F0919601EC15FD0509F02AC087D0ECEB00
:1006CE00F1E058D203DF6E2E772461D2F1F47ED0A2
:1006DE00E3EDF1E04FD246D269F4C6D2E0DE76D039
:1006EE004092AB015092AC01E0E0F2E043D2D7DE93
:1006FE00A6DF0AC0B9D2D3DE69D0E1E1F2E03AD288
:10070E00BADE64D06CDE62D001C001C0D7CF04C0A7
:10071E005DD0E3E2F2E02ED208950A921A92FA9296
:10072E006A937A938A939A93AA93BA93EA93FA93D3
:10073E00EFB7EA937894949AABDF9498A4EFB1E074
:10074E000DD344D0E991EFBFF991E991B991A991F7
:10075E009991899179916991F990199009901895CB
:10076E001A931A2FEBB3EF70AE2FE12FE07FEA2B27
:10077E00EBBB8DE08A95F1F7DA9A8DE08A95F1F769
:10078E00DA988DE08A95F1F775C0AA93A881E8DF13
:10079E00E881E295E883A881E3DF85E88A95F1F7A1
:1007AE00219608951A930A931A2F0A81E12FF0E0E9
:1007BE00E355FE4FE081E00FAE2FE7DF0093B1016E
:1007CE001093B2011981088123960895A2E050D2A8
:1007DE00ACE0DBDFA1E04CD2E0E0E093B201E093CD
:1007EE00B10108951A931A2F1A3031F0E091B30126
:1007FE00A091B101AE1750F0E0E0EA93A091B201E2
:10080E00AF5FA093B201CEDF1A30A1F1E091B1013A
:10081E00EF5FE093B101D89AA12FB7DFD8982AC025
:10082E001A931A2FEAB3E06FEABBD29AD09AD19AF2
:10083E00DA98D898D9981093B301E12FE058E09345
:10084E00AF01E12FE054E093B001A4E1B0E086D215
:10085E0013D212D211D2A0E283DF88EC90E001977E
:10086E00F1F7A8E292DFA4E090DFA5E88EDFA6E024
:10087E008CDFACDF19910895BA93AA93A991B9911F
:10088E00EE27FF276D91662311F03196FBCF089569
:10089E00BA93AA93AA27BB27E991F9910590002054
:1008AE0011F01196FBCFFD010895BA93AA932697E6
:1008BE0007D210E0AC85BD85E0E0F0E0ED93FC934F
:1008CE00EA89FB893196EA8BFB8B3197E4912E2FC7
:1008DE00E03009F40BC1E12FE03031F4253211F490
:1008EE0011E001C0D0D101C1E130A1F4253211F4E3
:1008FE00CAD1FAC012E040E000E02D3211F401E05E
:10090E00F4C02B3211F44BE2F0C0203211F440E26D
:10091E00ECC002C0E23039F450E013E0203311F4A1
:10092E000068E3C003C0E33009F0DFC0203310F0ED
:10093E002A3308F007C0AAE05A9F502DE22FE05349
:10094E005E0FD3C0E22FE33639F4A4D1E889F989DA
:10095E00A481AA93A5D1C8C0E33729F49BD1A6D10F
:10096E008BDF1E2F07C0E03749F494D19FD190DF63
:10097E001E2F086002600F7730E03AC0E43611F0A7
:10098E00E93611F4046002C0E53731F4E4E5F0E035
:10099E00EE83FF8315E00CC0E83511F4086003C048
:1009AE00E83709F0A1C0EEE5F0E0EE83FF8314E036
:1009BE0002FF15C06FD1A889B9891496ED91FD91EA
:1009CE00EA87FB87AB85AA2322F488D1EA87FB87C7
:1009DE004DE2403011F01F5F01C00B7F09C05AD1AC
:1009EE00A889B9891496ED91FC911197EA87FB8736
:1009FE0000FD10C0151770F407FF08C002FF04C0F9
:100A0E000B7F242F115001C020E301C020E23BD107
:100A1E005150F0CF312F01FF16C0303099F003FF47
:100A2E0006C0EE81FF812591EE83FF8305C0AE8166
:100A3E00BF812D91AE83BF8326D1503009F0515026
:100A4E003150EBCF48C020E3EE81FF817ED1E887A5
:100A5E00F987EE81FF813296EE83FF83E885F98573
:100A6E00AA85BB85AE17BF0750F02F5FA885B98545
:100A7E00EA85FB85EA1BFB0BEA87FB87EFCF2A3360
:100A8E0028F003FF02C0295F01C0295D04FD19C0D3
:100A9E00213320F4A885B985119709F409C053179D
:100AAE0010F000FF01C011C020E207FF0AC020E3D2
:100ABE00006102FF06C00B7F4A93F2D0503009F05E
:100ACE005150E1D0503009F051503150A885B985C0
:100ADE00129708F0B8CF00FF07C0503029F05150E0
:100AEE00E0E2EA93DDD0F9CF10E0EACEAC85BD8529
:100AFE00ED91FD91ECD064960895E4D08D013C818A
:100B0E00A32F70DED801ED91FD913196FE93EE93F9
:100B1E00E0D025960895FF92F82E26971A930A9301
:100B2E00DE0114960024AF0DB01D8D01E0E0EC83C4
:100B3E00ED83EE83EF83DE0118960024AF0DB01D1A
:100B4E00ED91FD91FA93EA931A930A93E4E8F5E096
:100B5E00FA93EA93DE011896A8DE19810881289689
:100B6E00FF900895B3DC6E2E7724EAE0F0E0E615F0
:100B7E00F7050895FA93EA9380E0CDDF2296089563
:100B8E0025DEA091A501B091A60113970895EBE083
:100B9E00F0E0E615F7050895ECE0F0E0AE16BF06BE
:100BAE000895F501AFE7B1E0EE0FFF1FAE0FBF1FC7
:100BBE00ED91FC911197E415F5050895EE0FFF1FC9
:100BCE00AE0FBF1FED91FD910895AFE7B1E0EE0FAF
:100BDE00FF1FEA0FFB1F0895E091A701F091A801F6
:100BEE000895EF2FFF27E7FDFFEF0895F2013196ED
:100BFE00FA93EA930895E0E0E093A501E093A6014D
:100C0E000895A091A501B091A60113970895A5EAA4
:100C1E00B1E0ED91FD913196FE93EE930895E3E0F0
:100C2E00F0E08E169F060895AAE0B0E063D0E60DC0
:100C3E00F71D0895D501AA0FBB1FAF57BE4F0895DC
:100C4E00E883F501AFE7B1E0B9CFFA93EA93AA8151
:100C5E00BDCCA091AB01B091AC010895B7DCE09191
:100C6E00AB01F091AC010895B1DDEFEEF1E082CF72
:100C7E008CDDA3E0B0E072C0A0E372DD88EC90E002
:100C8E000197F1F708952A93AD85BE85EF85F88912
:100C9E0009950895E889F9893497E88BF98B0895B9
:100CAE00AD85BE85EF85F88909950895A889B9891E
:100CBE001496ED91FD91EE83FF83AE81BF81089571
:100CCE005A934A933A932A931A930A9308955D81FD
:100CDE004C813B812A81198108810895F195E19516
:100CEE00F0400895FA9FF02DEB9FF00DEA9FE02D56
:100CFE00F10D08951CD0F6DF0EF4F0DF08950024F8
:100D0E00112490E1AA0FBB1F001C111C0E1A1F0A02
:100D1E0018F40E0E1F1E01C0A1609A9599F7FD01E1
:100D2E00D001089504D0EBDF0EF4D8DF0895E894D7
:100D3E00F7FF02C0D3DF6894B7FF06C0B195A19547
:100D4E00B04000F8039400FA08950590F491E02D58
:100D5E0008957A936A93FA93EA930895109639F068
:100D6E00A89580ED97E00197F1F71197C9F70895CF
:00000001FF
